:100000000C9462000C948A000C948A000C948A0070
:100010000C948A000C948A000C948A000C948A0038
:100020000C948A000C948A000C948A000C94E105CC
:100030000C948A000C948A000C948A000C948A0018
:100040000C943F050C948A000C94AF050C94890520
:100050000C948A000C948A000C948A000C948A00F8
:100060000C949D060C948A000000000024002700D8
:100070002A0000000000250028002B0000000000DE
:1000800023002600290004040404040404040202DA
:100090000202020203030303030301020408102007
:1000A0004080010204081020010204081020000012
:1000B0000008000201000003040700000000000027
:1000C0000000BC0711241FBECFEFD8E0DEBFCDBFBC
:1000D00011E0A0E0B1E0E0E6FCE102C005900D9285
:1000E000A236B107D9F723E0A2E6B1E001C01D9224
:1000F000A737B207E1F710E0C2E6D0E004C02197CD
:10010000FE010E94360CC136D107C9F70E948E0845
:100110000C942E0E0C940000833081F028F4813072
:1001200099F08230A9F008958730A9F08830C9F09D
:100130008430B1F4809180008F7D03C08091800075
:100140008F7780938000089584B58F7784BD08955C
:1001500084B58F7DFBCF8091B0008F778093B00006
:1001600008958091B0008F7DF9CFCF93DF93282F32
:1001700030E0F901E255FF4F8491F901E656FF4F57
:10018000D491F901EA57FF4FC491CC23A1F081111A
:100190000E948C00EC2FF0E0EE0FFF1FE458FF4FA1
:1001A000A591B491EC91ED2381E090E009F480E019
:1001B000DF91CF91089580E090E0FACF1F93CF9325
:1001C000DF93282F30E0F901E255FF4F8491F901C8
:1001D000E656FF4FD491F901EA57FF4FC491CC2363
:1001E000A9F0162F81110E948C00EC2FF0E0EE0F89
:1001F000FF1FEE58FF4FA591B4918FB7F894EC9183
:10020000111108C0D095DE23DC938FBFDF91CF9111
:100210001F910895DE2BF8CFCF93DF9390E0FC0180
:10022000E656FF4F24918A579F4FFC018491882303
:10023000C9F090E0880F991FFC01E859FF4FA59184
:10024000B491FC01EE58FF4FC591D49161110DC0DE
:100250009FB7F8948C91209582238C9388812823D2
:1002600028839FBFDF91CF910895623051F49FB7EB
:10027000F8943C91822F809583238C93E8812E2BD8
:10028000EFCF8FB7F894EC912E2B2C938FBFEACF42
:100290003FB7F8948091220290912302A09124020A
:1002A000B091250226B5A89B05C02F3F19F00196F5
:1002B000A11DB11D3FBFBA2FA92F982F8827BC01C0
:1002C000CD01620F711D811D911D42E0660F771FE8
:1002D000881F991F4A95D1F708958F929F92AF92E8
:1002E000BF92CF92DF92EF92FF924B015C010E948E
:1002F00048016B017C010E9448016C197D098E093F
:100300009F09683E734081059105A8F321E0821A98
:100310009108A108B10888EEC80E83E0D81EE11C40
:10032000F11C81149104A104B10429F7FF90EF900E
:10033000DF90CF90BF90AF909F908F9008950895D9
:100340000895AF92BF92CF92DF92EF92FF920F93F8
:100350001F93CF93DF936C017B018B01040F151F5B
:10036000EB015E01AE18BF08C017D10759F06991C3
:10037000D601ED91FC910190F081E02DC601099527
:10038000892B79F7C501DF91CF911F910F91FF90D4
:10039000EF90DF90CF90BF90AF900895FC01538D08
:1003A000448D252F30E0842F90E0821B930B54174F
:1003B00010F0CF96089501970895FC01918D828DDC
:1003C000981761F0A28DAE0FBF2FB11D5D968C9175
:1003D000928D9F5F9F73928F90E008958FEF9FEFB4
:1003E0000895FC01918D828D981731F0828DE80F70
:1003F000F11D858D90E008958FEF9FEF0895FC012A
:10040000918D228D892F90E0805C9F4F821B9109F6
:100410008F739927089586E292E00E94FF0121E000
:10042000892B09F420E0822F089580E090E0892B49
:1004300029F00E940B0281110C9400000895FC0128
:10044000A48DA80FB92FB11DA35ABF4F2C91848D35
:1004500090E001968F739927848FA689B7892C9392
:10046000A089B1898C91837080648C93938D848DE5
:10047000981306C00288F389E02D80818F7D8083E8
:100480000895EF92FF920F931F93CF93DF93EC01A8
:1004900081E0888F9B8D8C8D98131AC0E889F9892B
:1004A000808185FF15C09FB7F894EE89FF8960832E
:1004B000E889F98980818370806480839FBF81E0AF
:1004C00090E0DF91CF911F910F91FF90EF900895F1
:1004D000F62E0B8D10E00F5F1F4F0F731127E02ECC
:1004E0008C8D8E110CC00FB607FCFACFE889F98904
:1004F000808185FFF5CFCE010E941F02F1CFEB8DE9
:10050000EC0FFD2FF11DE35AFF4FF0829FB7F894D7
:100510000B8FEA89FB8980818062CFCFCF93DF93F5
:10052000EC01888D8823B9F0AA89BB89E889F9890B
:100530008C9185FD03C0808186FD0DC00FB607FC40
:10054000F7CF8C9185FFF2CF808185FFEDCFCE0173
:100550000E941F02E9CFDF91CF9108950895209165
:10056000A301260F3327331F21323105ECF42091EC
:10057000EC01FC0190E080E0243069F082E0089515
:10058000A091A3012191AC014D575E4FA40FB52F4F
:10059000B11D2C930196861798F38091A301680FE3
:1005A0006093A30180E0089581E008951092EC012A
:1005B00081E08093EB011092C60161E082E10E942C
:1005C000DE0061E083E10E94DE00E9EBF0E0808183
:1005D0008E7F808380818D7F808388E48093B800C4
:1005E00085E48093BC000895CF93DF9391E09093CE
:1005F00082018823B9F0C091B800D091BA008091EF
:10060000BC008A7B8093BC0060E082E10E94DE0037
:1006100060E083E10E94DE000E94D602D093BA001F
:10062000C093B800DF91CF9108950895E0911C0226
:1006300080911B02E81730F4F0E0EE59FE4F808104
:1006400090E008958FEF9FEF089590911C028091A4
:100650001B022FEF3FEF981748F4E92FF0E0EE5917
:10066000FE4F208130E09F5F90931C02C9010895E6
:1006700080911B0290911C02891B990B0895CF92C7
:10068000DF92EF92FF920F931F93CF93DF937C0142
:10069000CB018A012091F201222389F0EB016B0149
:1006A000C40ED51ECC15DD0569F06991D701ED9119
:1006B000FC910190F081E02DC7010995F3CF642FE3
:1006C0000E94AF02C801DF91CF911F910F91FF905F
:1006D000EF90DF90CF900895CF93DF931F92CDB727
:1006E000DEB769832091F2012223F9F020911902EB
:1006F000203258F021E030E0FC013383228390E087
:1007000080E00F90DF91CF91089580911A02E82F39
:10071000F0E0ED50FE4F998190838F5F80931A0235
:100720008093190281E090E0ECCF61E0CE01019668
:100730000E94AF02F7CFCF92DF92EF92FF920F931A
:100740001F93CF93DF93FC01C48121E02093F2013A
:10075000C093130210921A02109219028485682B1A
:1007600083EC92E00E946C03D0911902D13208F020
:1007700092C00E9448016B017C018091EC018111C3
:1007800065C082E08093EC0181E08093EB018FEF04
:100790008093EA011092E901D093E801A3EFB1E060
:1007A000E8ECF1E080E0D81385C01092C701809199
:1007B000C701CC0FC82BC093C7018091C6018130FF
:1007C00009F07CC01092C6010E9448016B017C01B7
:1007D0008091C7018093BB008091EE019091EF0161
:1007E000A091F001B091F101892B8A2B8B2B99F00C
:1007F0000E9448010091EE011091EF012091F0015B
:100800003091F1016C197D098E099F0906171707B0
:1008100028073907E0F18091BC0083FDD9CF85EC32
:100820008093BC000E9448016B017C018091EC0127
:10083000823009F445C08091EA018F3F61F18091D7
:10084000EA01803241F18091EA0125C08091EE01F8
:100850009091EF01A091F001B091F101892B8A2BC9
:100860008B2B09F48ACF0E9448010091EE01109170
:10087000EF012091F0013091F1016C197D098E0991
:100880009F09061717072807390708F076CF8091C8
:10089000ED010E94F40210921A02109219021092B5
:1008A000F201DF91CF911F910F91FF90EF90DF90B8
:1008B000CF9008959D9191938F5F75CF85EEB0CFC6
:1008C0008091EE019091EF01A091F001B091F101C2
:1008D000892B8A2B8B2B09F4A9CF0E944801009108
:1008E000EE011091EF012091F0013091F1016C19AE
:1008F0007D098E099F09061717072807390708F091
:1009000095CFC5CF90E080E00895862F0C94B50078
:10091000862F642F0C94DE00862F642F0C940C011C
:100920000F931F93CF93DF93EC01888199810097F8
:1009300059F02A813B812617370730F081E0DF919B
:10094000CF911F910F9108958B016F5F7F4F0E9490
:10095000610D009759F0998388831B830A832C814A
:100960003D81232B59F7FC011082E8CF80E0E7CFCF
:100970000F931F93CF938C01C62F0E949B036C2F64
:100980006460C8010E949B036C2F6B7FC8010E94AA
:100990009B0383EC90E00197F1F7CF911F910F91AA
:1009A00008950F931F93CF93DF938C01D62FC42FFD
:1009B000607F642B0E94B80480E1D89FB0011124AD
:1009C0006C2BC801DF91CF911F910F910C94B8044B
:1009D000682F606840E086E693E00C94D10440E024
:1009E00061E086E693E00E94D1048BE39FE10197EA
:1009F000F1F780916F03882319F080E00C94E804EC
:100A0000089541E00E94D10481E090E0089585EDD1
:100A10008093BC008091EE019091EF01A091F001D4
:100A2000B091F1010796A11DB11D23E0B695A795E0
:100A3000979587952A95D1F72091BC0024FD03C096
:100A40001092EC0108954091EE015091EF016091F8
:100A5000F0017091F101452B462B472B69F300976C
:100A6000A105B10541F02AE22A95F1F700C00197EE
:100A7000A109B109E1CF8091ED010C94F4021F921C
:100A80000F920FB60F9211242F933F938F939F9342
:100A9000AF93BF9380911E0290911F02A0912002FC
:100AA000B091210230911D0223E0230F2D3758F51C
:100AB0000196A11DB11D20931D0280931E029093EB
:100AC0001F02A0932002B0932102809122029091F4
:100AD0002302A0912402B09125020196A11DB11D0F
:100AE0008093220290932302A0932402B0932502C4
:100AF000BF91AF919F918F913F912F910F900FBE1A
:100B00000F901F90189526E8230F0296A11DB11D86
:100B1000D2CF1F920F920FB60F9211242F933F93B3
:100B20004F935F936F937F938F939F93AF93BF93F5
:100B3000EF93FF9386E292E00E941F02FF91EF91F4
:100B4000BF91AF919F918F917F916F915F914F91E5
:100B50003F912F910F900FBE0F901F9018951F92ED
:100B60000F920FB60F9211242F938F939F93EF93B1
:100B7000FF93E0913602F09137028081E0913C02D0
:100B8000F0913D0282FD1BC0908180913F028F5FFA
:100B90008F7320914002821741F0E0913F02F0E014
:100BA000EA5DFD4F958F80933F02FF91EF919F91FA
:100BB0008F912F910F900FBE0F901F9018958081ED
:100BC000F4CF1F920F920FB60F9211242F933F93E1
:100BD0004F935F936F937F938F939F93AF93BF9345
:100BE000CF93DF93EF93FF9380911402C091F302B0
:100BF000D0E087FF24C0109285001092840080917D
:100C000014028F5F8093140280911402082E000C4E
:100C1000990B8C179D0724F4809114028C30C4F139
:100C20008091840090918500049680349C4908F45A
:100C30007AC08091840090918500049676C080915E
:100C40001402082E000C990B8C179D07C4F6E09136
:100C500014028E2FEE0F990BFC01EE0FFF1FE80F11
:100C6000F91FE153FD4F808186FFC9CFE091140247
:100C70008E2FEE0F990BFC01EE0FFF1FE80FF91FEF
:100C8000E153FD4F808160E08F730E94DE00B7CF9B
:100C90002091840030918500E09114028E2FEE0F98
:100CA000990BFC01EE0FFF1FE80FF91FE153FD4FF9
:100CB00081819281820F931F909389008093880095
:100CC000E09114028E2FEE0F990BFC01EE0FFF1F27
:100CD000E80FF91FE153FD4F808186FF11C0E091BD
:100CE00014028E2FEE0F990BFC01EE0FFF1FE80F81
:100CF000F91FE153FD4F808161E08F730E94DE0098
:100D0000FF91EF91DF91CF91BF91AF919F918F9123
:100D10007F916F915F914F913F912F910F900FBEF7
:100D20000F901F90189580E49CE990938900809320
:100D300088008FEF80931402E3CF1F920F920FB6BB
:100D40000F9211242F933F934F935F936F937F9351
:100D50008F939F93AF93BF93EF93FF938091B900CD
:100D6000887F803609F44AC0F0F5883209F4A7C0BC
:100D700018F5803109F49BC0B8F4882309F4F9C050
:100D8000883009F494C0FF91EF91BF91AF919F918A
:100D90008F917F916F915F914F913F912F910F9024
:100DA0000FBE0F901F901895883109F488C08032CB
:100DB00051F78093EA0114C0803409F49DC040F4D7
:100DC0008033B9F38833F9F68093EA0185ECB0C03B
:100DD000803509F485C0883509F496C0883499F6C1
:100DE0000E940705D0CF883909F48CC038F58837C0
:100DF00029F050F4883611F0803729F683E080938B
:100E0000EC011092C50157C0883809F47BC08039C5
:100E100019F0803809F0B7CF8091C501803208F011
:100E200071C0E091C50181E08E0F8093C501809172
:100E3000BB00F0E0EB55FE4F80833DC0803B39F0B6
:100E4000E0F4803A09F479C0883A09F09CCF84E054
:100E50008093EC011092A4011092A301E09117027B
:100E6000F091180209958091A30181110FC081E0D2
:100E70008093A3011092830109C0803C09F4A6CF9E
:100E8000883C09F4A3CF883B09F07DCFE091A40111
:100E900081E08E0F8093A401F0E0ED57FE4F80813A
:100EA0008093BB009091A4018091A30129C08091FF
:100EB000C7018093BB0085EC8093BC0064CF909108
:100EC000E9018091E801981758F5E091E90181E086
:100ED0008E0F8093E901F0E0E853FE4F8081E9CF67
:100EE000E091E90181E08E0F8093E9018091BB00E0
:100EF000F0E0E853FE4F80839091E9018091E80192
:100F00009817C8F285E8D8CFE091E90181E08E0F0B
:100F10008093E9018091BB00F0E0E853FE4F8083AD
:100F20008091EB0181115CCF81E08093C60184EA5E
:100F30008093BC001092EC0126CF85EC8093BC001E
:100F40001092EC018091C501803230F4E091C5012E
:100F5000F0E0EB55FE4F10826091C50170E0E0912A
:100F60001502F091160285EA91E009951092C501EB
:100F70000ACF1092EA0134CF10922902109228026F
:100F800088EE93E0A0E0B0E080932A0290932B02D9
:100F9000A0932C02B0932D0221E231E0309327027E
:100FA0002093260225EC30E0309333022093320266
:100FB00024EC30E0309335022093340220EC30E012
:100FC000309337022093360221EC30E0309339021F
:100FD0002093380222EC30E030933B0220933A0217
:100FE00026EC30E030933D0220933C0210923F0209
:100FF0001092400210924102109242021092C602D8
:101000001092C5028093C7029093C802A093C902B0
:10101000B093CA0283E391E09093C4028093C30229
:1010200010926903109268038FE491E09093670334
:101030008093660310926F0387E280936A0380E1D6
:101040008093700382E08093710310927203809109
:10105000F3028C3008F05EC091E0980F9093F30299
:101060008093630390E0FC01EE0FFF1FE80FF91F70
:10107000E153FD4F88EB9BE0928381831092F6024F
:101080001092FA021092F9021092FB0285E491E0AC
:101090009093F5028093F402E0E1F3E01082148271
:1010A00013821582369683E0EC34F807B9F783E0B3
:1010B00091E0909357038093560380E091E09093E2
:1010C00059038093580384E080935A0383E080930C
:1010D0005B0387E091E090935503809354038AE08B
:1010E00090E090935D0380935C0384EF91E0909394
:1010F0005F0380935E03109262031092610310926B
:101100005003109251031092520310925303109205
:10111000600308958FEF80936303B0CFCF93DF9385
:10112000CDB7DEB764970FB6F894DEBF0FBECDBF64
:10113000789484B5826084BD84B5816084BD85B5B2
:10114000826085BD85B5816085BD80916E008160BE
:1011500080936E0010928100809181008260809364
:101160008100809181008160809381008091800066
:101170008160809380008091B10084608093B10091
:101180008091B00081608093B00080917A0084608B
:1011900080937A0080917A00826080937A008091B7
:1011A0007A00816080937A0080917A0080688093D1
:1011B0007A001092C10062E08AE00E940C010E9455
:1011C000EF0410921C0210921B0210921A0210924D
:1011D00019020E94D6028FE991E090931802809341
:1011E000170280EA91E09093160280931502109204
:1011F0006B0380917103823018F098E090936B0339
:1012000080936E0362E370E080E090E00E946D01E5
:101210006091720386E693E00E949B0368EE73E0A0
:1012200080E090E00E946D0160E386E693E00E941A
:10123000B8040BE416E4C8010197F1F760E386E611
:1012400093E00E94B804C8010197F1F760E386E6D5
:1012500093E00E94B80483E592E00197F1F760E221
:1012600086E693E00E94B80460916B03606240E000
:1012700086E693E00E94D10484E080936C0340E012
:101280006CE086E693E00E94D1040E94EF0482E0C5
:1012900080936D0340E066E086E693E00E94D1040F
:1012A00040E062E086E693E00E94D1048BE39FE198
:1012B0000197F1F788E08093720360E086E693E09F
:1012C0000E949B0346E050E067E571E086E693E00C
:1012D0000E94A10187E00E94E804809163038C30A2
:1012E00008F051C061E08BE00E940C018091630323
:1012F000282F30E0F901EE0FFF1FE20FF31FE1533B
:10130000FD4F9081907C9B609083109264031092BB
:1013100065032CE0622F0E942A0C829FB0011124E9
:1013200030E020E0AB01420F531FFA01EE0FFF1F28
:10133000E40FF51FE153FD4F908196FD16C02F5F1E
:101340003F4F2C30310571F781110FC01092800092
:1013500082E0809381001092850010928400B19AFF
:1013600080916F00826080936F00E09163038E2F05
:1013700090E0FC01EE0FFF1FE80FF91FE153FD4F56
:10138000808180648083E0913602F091370282E0B0
:101390008083E0913202F09133021082E0913402B6
:1013A000F09135028FEC808310923E02E0913A0278
:1013B000F0913B0286E08083E0913802F09139029F
:1013C000808180618083E0913802F09139028081D0
:1013D00088608083E0913802F091390280818068D2
:1013E0008083E0913802F091390280818F7D808383
:1013F00080E480937C0080917A00806480937A00FE
:1014000080917A0086FDFCCF609178007091790020
:10141000072E000C880B990B61157105810591054C
:1014200011F00E94460B9AE0492E512C612C712C30
:10143000CE0101967C0120E0A22E20E0B22E8AE0AF
:101440000E94B500892B09F072C0188A1F861A8A7B
:10145000198A1C8A1B8A70E060E0CE010F960E94F8
:1014600090042F85388981116EC02115310519F03E
:10147000C9010E94D80C188A1F861C8A1B8A1A8AE6
:10148000198A87E00E94E80486E0C82ED12C0E94C9
:10149000F70AA30192010E94900B2AE0A7010E9483
:1014A0004F0BF70101900020E9F73197EE19FF0982
:1014B000B1F00B891C890E0F1F1FB801CE010F96CA
:1014C0000E949004882359F02F8538898B899C8944
:1014D000B701820F931F0E94270E1C8B0B8B91E08C
:1014E000C91AD108A1F64B895C896F85788986E293
:1014F00092E00E94A10142E050E06EE571E086E2D8
:1015000092E00E94A1014B895C896F85788986E60B
:1015100093E00E94A10164EF71E080E090E00E94FE
:101520006D018F859889009711F00E94D80CA11445
:10153000B10409F484CF0E940B02882309F47FCF01
:101540000E9400007CCF1C8A1B8A60E671E0C90102
:101550000E94270E96CF8F929F92AF92BF92CF920A
:10156000DF92EF92FF92CF93DF93EC016881798154
:101570008A819B81611571058105910521F464E2E1
:1015800079ED8BE597E02DE133EF41E050E00E94EB
:10159000900B49015A019B01AC01A7EAB1E40E94FA
:1015A000AF0B6B017C01ACEEB4EFA50194010E947E
:1015B000BD0BC60ED71EE81EF91EF7FE06C081E061
:1015C000C81AD108E10880E8F80AC882D982EA82FC
:1015D000FB82C701B6019F77DF91CF91FF90EF901B
:1015E000DF90CF90BF90AF909F908F9008958F9293
:1015F0009F92AF92BF92CF92DF92EF92FF92609153
:1016000013017091140180911501909116016115DB
:1016100071058105910521F464E279ED8BE597E090
:101620002DE133EF41E050E00E94900B49015A0157
:101630009B01AC01A7EAB1E40E94AF0B6B017C01F6
:10164000ACEEB4EFA50194010E94BD0BC60ED71EEF
:10165000E81EF91EF7FE06C081E0C81AD108E108AD
:1016600080E8F80AC0921301D0921401E0921501AB
:10167000F0921601C701B6019F77FF90EF90DF90BF
:10168000CF90BF90AF909F908F900895609313017B
:101690007093140180931501909316010895BB2750
:1016A0002A3051F4992342F4BDE2909580957095CB
:1016B00061957F4F8F4F9F4F0C945F0BBB27FA01B3
:1016C000A62F6217710581059105330B30FB66F07B
:1016D000AA27660F771F881F991FAA1FA21710F04D
:1016E000A21B63953850A9F7A05DAA3308F0A95D45
:1016F000A19336F7B111B1931082CA010C94800BFB
:10170000DC01FC01672F71917723E1F7329704C068
:101710007C916D9370836291AE17BF07C8F30895F3
:10172000052E97FB1EF400940E94A70B57FD07D0CF
:101730000E94F90B07FC03D04EF40C94A70B5095B4
:101740004095309521953F4F4F4F5F4F08959095AD
:101750008095709561957F4F8F4F9F4F08950E94A0
:101760001B0CA59F900DB49F900DA49F800D911D03
:1017700011240895B7FF0C94AF0B0E94AF0B821B8E
:10178000930B08952F923F924F925F926F927F92A8
:101790008F929F92AF92BF92CF92DF92EF92FF9281
:1017A0000F931F93CF93DF93CDB7DEB7CA1BDB0B2D
:1017B0000FB6F894DEBF0FBECDBF09942A883988D2
:1017C00048885F846E847D848C849B84AA84B984D9
:1017D000C884DF80EE80FD800C811B81AA81B981E5
:1017E000CE0FD11D0FB6F894DEBF0FBECDBFED01F9
:1017F0000895A1E21A2EAA1BBB1BFD010DC0AA1F52
:10180000BB1FEE1FFF1FA217B307E407F50720F069
:10181000A21BB30BE40BF50B661F771F881F991FE4
:101820001A9469F760957095809590959B01AC012D
:10183000BD01CF010895A29FB001B39FC001A39F36
:10184000700D811D1124911DB29F700D811D1124F9
:10185000911D0895991B79E004C0991F961708F00F
:10186000961B881F7A95C9F780950895EE0FFF1F84
:101870000590F491E02D09940F931F93CF93DF937C
:101880008230910510F482E090E0E0917503F091D0
:10189000760330E020E0B0E0A0E0309799F4211525
:1018A000310509F44AC0281B390B24303105D8F51D
:1018B0008A819B816115710589F1FB019383828384
:1018C000FE0111C0408151810281138148175907DF
:1018D000E0F04817590799F4109761F012960C93AD
:1018E000129713961C933296CF01DF91CF911F91DF
:1018F0000F9108950093750310937603F4CF21158B
:10190000310551F04217530738F0A901DB019A0164
:10191000BD01DF01F801C1CFEF01F9CF909376034C
:1019200080937503CDCFFE01E20FF31F8193919356
:101930002250310939832883D7CF20917303309106
:101940007403232B41F42091190130911A01309333
:10195000740320937303209117013091180121150E
:10196000310541F42DB73EB740911B0150911C0148
:10197000241B350BE0917303F0917403E217F30716
:10198000A0F42E1B3F0B2817390778F0AC014E5FEF
:101990005F4F2417350748F04E0F5F1F50937403B5
:1019A00040937303819391939FCFF0E0E0E09CCF4D
:1019B000CF93DF930097E9F0FC01329713821282F4
:1019C000A0917503B0917603ED0130E020E010970F
:1019D000A1F420813181820F931F209173033091F4
:1019E00074032817390709F061C0F0937403E0937A
:1019F0007303DF91CF910895EA01CE17DF07E8F571
:101A00004A815B819E0141155105B1F7E901FB83D4
:101A1000EA8349915991C40FD51FEC17FD0761F472
:101A2000808191810296840F951FE90199838883B3
:101A3000828193819B838A83F0E0E0E012968D910E
:101A40009C9113970097B9F52D913C911197CD0179
:101A50000296820F931F209173033091740328170D
:101A6000390739F6309751F51092760310927503C5
:101A7000B0937403A0937303BCCFD383C28340811C
:101A80005181840F951FC817D90761F44E5F5F4FCE
:101A900088819981480F591F518340838A819B8196
:101AA000938382832115310509F0B0CFF09376033B
:101AB000E09375039ECFFD01DC01C0CF138212823B
:101AC000D7CFB0E0A0E0E7E6FDE00C94C40B8C01BA
:101AD000009751F4CB010E943C0C8C01C801CDB79A
:101AE000DEB7E0E10C94E00BFC01E60FF71F9C0170
:101AF00022503109E217F30708F49DC0D901CD91B6
:101B0000DC911197C617D70798F0C530D10530F38F
:101B1000CE0104978617970708F3C61BD70B2297A9
:101B2000C193D1936D937C93CF010E94D80CD6CFF3
:101B30005B01AC1ABD0A4C018C0E9D1EA091750371
:101B4000B0917603512C412CF12CE12C109731F5FA
:101B500080917303909174038815990509F05CC016
:101B60004616570608F058C0809117019091180149
:101B7000009741F48DB79EB740911B0150911C0115
:101B8000841B950BE817F90708F055C0F093740310
:101B9000E0937303F90171836083A0CF8D919C91D1
:101BA000119712966C90129713967C901397A81524
:101BB000B90559F56C0142E0C40ED11CCA14DB040E
:101BC00020F1AC014A195B09DA011296159780F0F1
:101BD0006282738251834083D9016D937C93E114B7
:101BE000F10471F0D7011396FC93EE93129776CF20
:101BF00022968C0F9D1FF90191838083F301EFCF13
:101C0000F0937603E093750369CF4816590608F4FC
:101C10002C017D01D3019ACFCB010E943C0C7C01A9
:101C2000009749F0AE01B8010E941E0EC8010E9443
:101C3000D80C870153CF10E000E050CFFB01DC014E
:101C400002C001900D9241505040D8F70895FB0119
:101C5000DC0101900D920020E1F70895F894FFCF88
:101C60000607080504030231323334353637383974
:101C70002A302301000000000077038000000000EC
:101C8000004102A101CE018E02FF01DD01F1010040
:101C90000000006C033F038204150338032503167C
:101CA00003000000008C048804850400000000018B
:101CB00005A1018204AE02436F64653A20000D0A5B
:021CC000000022
:00000001FF
